{
  "_format": "hh-sol-artifact-1",
  "contractName": "Vote",
  "sourceName": "contracts/Vote.sol",
  "abi": [
    {
      "inputs": [],
      "stateMutability": "nonpayable",
      "type": "constructor"
    },
    {
      "anonymous": false,
      "inputs": [
        {
          "indexed": false,
          "internalType": "uint256",
          "name": "candidateIndex",
          "type": "uint256"
        },
        {
          "indexed": false,
          "internalType": "address",
          "name": "voter",
          "type": "address"
        }
      ],
      "name": "Voted",
      "type": "event"
    },
    {
      "inputs": [
        {
          "internalType": "uint256",
          "name": "",
          "type": "uint256"
        }
      ],
      "name": "candidates",
      "outputs": [
        {
          "internalType": "string",
          "name": "",
          "type": "string"
        }
      ],
      "stateMutability": "view",
      "type": "function"
    },
    {
      "inputs": [],
      "name": "getCandidatesCount",
      "outputs": [
        {
          "internalType": "uint256",
          "name": "",
          "type": "uint256"
        }
      ],
      "stateMutability": "view",
      "type": "function"
    },
    {
      "inputs": [
        {
          "internalType": "uint256",
          "name": "_candidateIndex",
          "type": "uint256"
        }
      ],
      "name": "getVotes",
      "outputs": [
        {
          "internalType": "uint256",
          "name": "",
          "type": "uint256"
        }
      ],
      "stateMutability": "view",
      "type": "function"
    },
    {
      "inputs": [
        {
          "internalType": "uint256",
          "name": "_candidateIndex",
          "type": "uint256"
        }
      ],
      "name": "vote",
      "outputs": [],
      "stateMutability": "nonpayable",
      "type": "function"
    },
    {
      "inputs": [
        {
          "internalType": "uint256",
          "name": "",
          "type": "uint256"
        }
      ],
      "name": "votes",
      "outputs": [
        {
          "internalType": "uint256",
          "name": "",
          "type": "uint256"
        }
      ],
      "stateMutability": "view",
      "type": "function"
    }
  ],
  "bytecode": "0x60806040523480156200001157600080fd5b50600080600181540180825580915050600190039060005260206000200160006040518060400160405280600981526020017f4c656f6e20426c756d0000000000000000000000000000000000000000000000815250909190915090816200007a9190620003cd565b50600080600181540180825580915050600190039060005260206000200160006040518060400160405280600e81526020017f4a6163717565732043686972616300000000000000000000000000000000000081525090919091509081620000e39190620003cd565b50600080600181540180825580915050600190039060005260206000200160006040518060400160405280601381526020017f4672616e636f6973204d697474657272616e6400000000000000000000000000815250909190915090816200014c9190620003cd565b50620004b4565b600081519050919050565b7f4e487b7100000000000000000000000000000000000000000000000000000000600052604160045260246000fd5b7f4e487b7100000000000000000000000000000000000000000000000000000000600052602260045260246000fd5b60006002820490506001821680620001d557607f821691505b602082108103620001eb57620001ea6200018d565b5b50919050565b60008190508160005260206000209050919050565b60006020601f8301049050919050565b600082821b905092915050565b600060088302620002557fffffffffffffffffffffffffffffffffffffffffffffffffffffffffffffffff8262000216565b62000261868362000216565b95508019841693508086168417925050509392505050565b6000819050919050565b6000819050919050565b6000620002ae620002a8620002a28462000279565b62000283565b62000279565b9050919050565b6000819050919050565b620002ca836200028d565b620002e2620002d982620002b5565b84845462000223565b825550505050565b600090565b620002f9620002ea565b62000306818484620002bf565b505050565b5b818110156200032e5762000322600082620002ef565b6001810190506200030c565b5050565b601f8211156200037d576200034781620001f1565b620003528462000206565b8101602085101562000362578190505b6200037a620003718562000206565b8301826200030b565b50505b505050565b600082821c905092915050565b6000620003a26000198460080262000382565b1980831691505092915050565b6000620003bd83836200038f565b9150826002028217905092915050565b620003d88262000153565b67ffffffffffffffff811115620003f457620003f36200015e565b5b620004008254620001bc565b6200040d82828562000332565b600060209050601f83116001811462000445576000841562000430578287015190505b6200043c8582620003af565b865550620004ac565b601f1984166200045586620001f1565b60005b828110156200047f5784890151825560018201915060208501945060208101905062000458565b868310156200049f57848901516200049b601f8916826200038f565b8355505b6001600288020188555050505b505050505050565b6105e680620004c46000396000f3fe608060405234801561001057600080fd5b50600436106100575760003560e01c80630121b93f1461005c5780633477ee2e146100785780635df81330146100a8578063bb9aa28f146100d8578063ff981099146100f6575b600080fd5b610076600480360381019061007191906102fa565b610126565b005b610092600480360381019061008d91906102fa565b6101d2565b60405161009f91906103b7565b60405180910390f35b6100c260048036038101906100bd91906102fa565b61027e565b6040516100cf91906103e8565b60405180910390f35b6100e0610296565b6040516100ed91906103e8565b60405180910390f35b610110600480360381019061010b91906102fa565b6102a2565b60405161011d91906103e8565b60405180910390f35b600080549050811061016d576040517f08c379a00000000000000000000000000000000000000000000000000000000081526004016101649061044f565b60405180910390fd5b6001600082815260200190815260200160002060008154809291906101919061049e565b91905055507f030b0f8dcd86a031eddb071f91882edeac8173663ba775713b677b42b51be44b81336040516101c7929190610527565b60405180910390a150565b600081815481106101e257600080fd5b9060005260206000200160009150905080546101fd9061057f565b80601f01602080910402602001604051908101604052809291908181526020018280546102299061057f565b80156102765780601f1061024b57610100808354040283529160200191610276565b820191906000526020600020905b81548152906001019060200180831161025957829003601f168201915b505050505081565b60016020528060005260406000206000915090505481565b60008080549050905090565b600060016000838152602001908152602001600020549050919050565b600080fd5b6000819050919050565b6102d7816102c4565b81146102e257600080fd5b50565b6000813590506102f4816102ce565b92915050565b6000602082840312156103105761030f6102bf565b5b600061031e848285016102e5565b91505092915050565b600081519050919050565b600082825260208201905092915050565b60005b83811015610361578082015181840152602081019050610346565b60008484015250505050565b6000601f19601f8301169050919050565b600061038982610327565b6103938185610332565b93506103a3818560208601610343565b6103ac8161036d565b840191505092915050565b600060208201905081810360008301526103d1818461037e565b905092915050565b6103e2816102c4565b82525050565b60006020820190506103fd60008301846103d9565b92915050565b7f43616e646964617420696e76616c696465000000000000000000000000000000600082015250565b6000610439601183610332565b915061044482610403565b602082019050919050565b600060208201905081810360008301526104688161042c565b9050919050565b7f4e487b7100000000000000000000000000000000000000000000000000000000600052601160045260246000fd5b60006104a9826102c4565b91507fffffffffffffffffffffffffffffffffffffffffffffffffffffffffffffffff82036104db576104da61046f565b5b600182019050919050565b600073ffffffffffffffffffffffffffffffffffffffff82169050919050565b6000610511826104e6565b9050919050565b61052181610506565b82525050565b600060408201905061053c60008301856103d9565b6105496020830184610518565b9392505050565b7f4e487b7100000000000000000000000000000000000000000000000000000000600052602260045260246000fd5b6000600282049050600182168061059757607f821691505b6020821081036105aa576105a9610550565b5b5091905056fea26469706673582212200473c18e575652f0552a21dfb30976e1b30f0a9846a87206b24b7ba587ec80dc64736f6c63430008140033",
  "linkReferences": {},
  "deployedLinkReferences": {}
}